:040000009EEF3FF040
:107F3C00026A016A0001A3EF3FF00F0EC16E000E42
:107F4C00936E92809282928480A0AFEF3FF0B1EF5B
:107F5C003FF0C9EF3FF0014A022A01280210D8A4D1
:107F6C00BAEF3FF0BCEF3FF0C0EF3FF0000E026EF7
:107F7C00000E016E80B0C5EF3FF0C7EF3FF0C0EFD1
:107F8C003FF0FAEF3FF080A2CEEF3FF0D0EF3FF0A2
:107F9C00E8EF3FF00106D8A0020601500210D8A469
:107FAC00DAEF3FF0DCEF3FF0DFEF3FF0000E026E58
:107FBC00016880B2E4EF3FF0E6EF3FF0DFEF3FF017
:107FCC00FAEF3FF080A4EDEF3FF0EFEF3FF0FAEF68
:107FDC003FF0000E026E000E016E80B4F8EF3FF021
:107FEC00FAEF3FF0F3EF3FF001C08AFFAAEF3FF04A
:047FFC0000EF00F0A2
:020000040020DA
:08000000FFFFFFFFFFFFFFFF00
:020000040030CA
:0E000000000C1F1FFF8385FF0FC00FE00F4095
:00000001FF
